{"contracts/Verifier.sol":{"Verifier":{"abi":[{"inputs":[{"internalType":"address","name":"signer","type":"address"},{"components":[{"internalType":"uint256","name":"amount","type":"uint256"},{"components":[{"internalType":"uint256","name":"userId","type":"uint256"},{"internalType":"address","name":"wallet","type":"address"}],"internalType":"struct Verifier.Identity","name":"bidder","type":"tuple"}],"internalType":"struct Verifier.Bid","name":"bid","type":"tuple"},{"internalType":"uint8","name":"v","type":"uint8"},{"internalType":"bytes32","name":"r","type":"bytes32"},{"internalType":"bytes32","name":"s","type":"bytes32"}],"name":"verify","outputs":[{"internalType":"bool","name":"","type":"bool"}],"stateMutability":"pure","type":"function"}],"evm":{"bytecode":{"linkReferences":{},"object":"608060405234801561001057600080fd5b5061097b806100206000396000f3fe608060405234801561001057600080fd5b506004361061002b5760003560e01c80633c9ee31c14610030575b600080fd5b61004a600480360381019061004591906103f0565b610060565b604051610057919061056f565b60405180910390f35b6000600161006d866100f2565b8585856040516000815260200160405260405161008d9493929190610659565b6020604051602081039080840390855afa1580156100af573d6000803e3d6000fd5b5050506020604051035173ffffffffffffffffffffffffffffffffffffffff168673ffffffffffffffffffffffffffffffffffffffff1614905095945050505050565b60006040518060800160405280605f81526020016108c0605f913960405160200161011d9190610521565b604051602081830303815290604052805190602001207f9c22ff5f21f0b81b113e63f7db6da94fedef11b2119b4088b89664fb9a3cb6587fad7c5bef027816a800da1736444fb58a807ef4c9603b7848673f7e3a68eb14a56005731c56346cd2a2bf3202f771f50d3d14a367b480707ff2d857f4a3edcb9b78b4d503bfe733db1e3f6cdc2b7971ee739626c97e86a55860001b6040516020016101c59695949392919061058a565b604051602081830303815290604052805190602001206040518060800160405280604a8152602001610876604a91396040516020016102049190610521565b60405160208183030381529060405280519060200120836000015161022c8560200151610282565b60405160200161023e93929190610622565b60405160208183030381529060405280519060200120604051602001610265929190610538565b604051602081830303815290604052805190602001209050919050565b600060405180606001604052806027815260200161091f602791396040516020016102ad9190610521565b60405160208183030381529060405280519060200120826000015183602001516040516020016102df939291906105eb565b604051602081830303815290604052805190602001209050919050565b60008135905061030b81610819565b92915050565b60008135905061032081610830565b92915050565b60006060828403121561033c5761033b6107d5565b5b610346604061069e565b90506000610356848285016103c6565b600083015250602061036a84828501610376565b60208301525092915050565b60006040828403121561038c5761038b6107d5565b5b610396604061069e565b905060006103a6848285016103c6565b60008301525060206103ba848285016102fc565b60208301525092915050565b6000813590506103d581610847565b92915050565b6000813590506103ea8161085e565b92915050565b600080600080600060e0868803121561040c5761040b6107da565b5b600061041a888289016102fc565b955050602061042b88828901610326565b945050608061043c888289016103db565b93505060a061044d88828901610311565b92505060c061045e88828901610311565b9150509295509295909350565b610474816106d9565b82525050565b610483816106eb565b82525050565b610492816106f7565b82525050565b6104a96104a4826106f7565b61079c565b82525050565b60006104ba826106c3565b6104c481856106ce565b93506104d4818560208601610738565b80840191505092915050565b60006104ed6002836106ce565b91506104f8826107f0565b600282019050919050565b61050c81610721565b82525050565b61051b8161072b565b82525050565b600061052d82846104af565b915081905092915050565b6000610543826104e0565b915061054f8285610498565b60208201915061055f8284610498565b6020820191508190509392505050565b6000602082019050610584600083018461047a565b92915050565b600060c08201905061059f6000830189610489565b6105ac6020830188610489565b6105b96040830187610489565b6105c66060830186610503565b6105d3608083018561046b565b6105e060a0830184610489565b979650505050505050565b60006060820190506106006000830186610489565b61060d6020830185610503565b61061a604083018461046b565b949350505050565b60006060820190506106376000830186610489565b6106446020830185610503565b6106516040830184610489565b949350505050565b600060808201905061066e6000830187610489565b61067b6020830186610512565b6106886040830185610489565b6106956060830184610489565b95945050505050565b60006106a86106b9565b90506106b4828261076b565b919050565b6000604051905090565b600081519050919050565b600081905092915050565b60006106e482610701565b9050919050565b60008115159050919050565b6000819050919050565b600073ffffffffffffffffffffffffffffffffffffffff82169050919050565b6000819050919050565b600060ff82169050919050565b60005b8381101561075657808201518184015260208101905061073b565b83811115610765576000848401525b50505050565b610774826107df565b810181811067ffffffffffffffff82111715610793576107926107a6565b5b80604052505050565b6000819050919050565b7f4e487b7100000000000000000000000000000000000000000000000000000000600052604160045260246000fd5b600080fd5b600080fd5b6000601f19601f8301169050919050565b7f1901000000000000000000000000000000000000000000000000000000000000600082015250565b610822816106d9565b811461082d57600080fd5b50565b610839816106f7565b811461084457600080fd5b50565b61085081610721565b811461085b57600080fd5b50565b6108678161072b565b811461087257600080fd5b5056fe4269642875696e7432353620616d6f756e742c4964656e7469747920626964646572294964656e746974792875696e74323536207573657249642c616464726573732077616c6c657429454950373132446f6d61696e28737472696e67206e616d652c737472696e672076657273696f6e2c75696e7432353620636861696e49642c6164647265737320766572696679696e67436f6e74726163742c627974657333322073616c74294964656e746974792875696e74323536207573657249642c616464726573732077616c6c657429a26469706673582212200b8004c2a5b27780f3fd96d92ff4d557bc23a2cb6308da3ce9f3cf482d9981cf64736f6c63430008070033","opcodes":"PUSH1 0x80 PUSH1 0x40 MSTORE CALLVALUE DUP1 ISZERO PUSH2 0x10 JUMPI PUSH1 0x0 DUP1 REVERT JUMPDEST POP PUSH2 0x97B DUP1 PUSH2 0x20 PUSH1 0x0 CODECOPY PUSH1 0x0 RETURN INVALID PUSH1 0x80 PUSH1 0x40 MSTORE CALLVALUE DUP1 ISZERO PUSH2 0x10 JUMPI PUSH1 0x0 DUP1 REVERT JUMPDEST POP PUSH1 0x4 CALLDATASIZE LT PUSH2 0x2B JUMPI PUSH1 0x0 CALLDATALOAD PUSH1 0xE0 SHR DUP1 PUSH4 0x3C9EE31C EQ PUSH2 0x30 JUMPI JUMPDEST PUSH1 0x0 DUP1 REVERT JUMPDEST PUSH2 0x4A PUSH1 0x4 DUP1 CALLDATASIZE SUB DUP2 ADD SWAP1 PUSH2 0x45 SWAP2 SWAP1 PUSH2 0x3F0 JUMP JUMPDEST PUSH2 0x60 JUMP JUMPDEST PUSH1 0x40 MLOAD PUSH2 0x57 SWAP2 SWAP1 PUSH2 0x56F JUMP JUMPDEST PUSH1 0x40 MLOAD DUP1 SWAP2 SUB SWAP1 RETURN JUMPDEST PUSH1 0x0 PUSH1 0x1 PUSH2 0x6D DUP7 PUSH2 0xF2 JUMP JUMPDEST DUP6 DUP6 DUP6 PUSH1 0x40 MLOAD PUSH1 0x0 DUP2 MSTORE PUSH1 0x20 ADD PUSH1 0x40 MSTORE PUSH1 0x40 MLOAD PUSH2 0x8D SWAP5 SWAP4 SWAP3 SWAP2 SWAP1 PUSH2 0x659 JUMP JUMPDEST PUSH1 0x20 PUSH1 0x40 MLOAD PUSH1 0x20 DUP2 SUB SWAP1 DUP1 DUP5 SUB SWAP1 DUP6 GAS STATICCALL ISZERO DUP1 ISZERO PUSH2 0xAF JUMPI RETURNDATASIZE PUSH1 0x0 DUP1 RETURNDATACOPY RETURNDATASIZE PUSH1 0x0 REVERT JUMPDEST POP POP POP PUSH1 0x20 PUSH1 0x40 MLOAD SUB MLOAD PUSH20 0xFFFFFFFFFFFFFFFFFFFFFFFFFFFFFFFFFFFFFFFF AND DUP7 PUSH20 0xFFFFFFFFFFFFFFFFFFFFFFFFFFFFFFFFFFFFFFFF AND EQ SWAP1 POP SWAP6 SWAP5 POP POP POP POP POP JUMP JUMPDEST PUSH1 0x0 PUSH1 0x40 MLOAD DUP1 PUSH1 0x80 ADD PUSH1 0x40 MSTORE DUP1 PUSH1 0x5F DUP2 MSTORE PUSH1 0x20 ADD PUSH2 0x8C0 PUSH1 0x5F SWAP2 CODECOPY PUSH1 0x40 MLOAD PUSH1 0x20 ADD PUSH2 0x11D SWAP2 SWAP1 PUSH2 0x521 JUMP JUMPDEST PUSH1 0x40 MLOAD PUSH1 0x20 DUP2 DUP4 SUB SUB DUP2 MSTORE SWAP1 PUSH1 0x40 MSTORE DUP1 MLOAD SWAP1 PUSH1 0x20 ADD KECCAK256 PUSH32 0x9C22FF5F21F0B81B113E63F7DB6DA94FEDEF11B2119B4088B89664FB9A3CB658 PUSH32 0xAD7C5BEF027816A800DA1736444FB58A807EF4C9603B7848673F7E3A68EB14A5 PUSH1 0x5 PUSH20 0x1C56346CD2A2BF3202F771F50D3D14A367B48070 PUSH32 0xF2D857F4A3EDCB9B78B4D503BFE733DB1E3F6CDC2B7971EE739626C97E86A558 PUSH1 0x0 SHL PUSH1 0x40 MLOAD PUSH1 0x20 ADD PUSH2 0x1C5 SWAP7 SWAP6 SWAP5 SWAP4 SWAP3 SWAP2 SWAP1 PUSH2 0x58A JUMP JUMPDEST PUSH1 0x40 MLOAD PUSH1 0x20 DUP2 DUP4 SUB SUB DUP2 MSTORE SWAP1 PUSH1 0x40 MSTORE DUP1 MLOAD SWAP1 PUSH1 0x20 ADD KECCAK256 PUSH1 0x40 MLOAD DUP1 PUSH1 0x80 ADD PUSH1 0x40 MSTORE DUP1 PUSH1 0x4A DUP2 MSTORE PUSH1 0x20 ADD PUSH2 0x876 PUSH1 0x4A SWAP2 CODECOPY PUSH1 0x40 MLOAD PUSH1 0x20 ADD PUSH2 0x204 SWAP2 SWAP1 PUSH2 0x521 JUMP JUMPDEST PUSH1 0x40 MLOAD PUSH1 0x20 DUP2 DUP4 SUB SUB DUP2 MSTORE SWAP1 PUSH1 0x40 MSTORE DUP1 MLOAD SWAP1 PUSH1 0x20 ADD KECCAK256 DUP4 PUSH1 0x0 ADD MLOAD PUSH2 0x22C DUP6 PUSH1 0x20 ADD MLOAD PUSH2 0x282 JUMP JUMPDEST PUSH1 0x40 MLOAD PUSH1 0x20 ADD PUSH2 0x23E SWAP4 SWAP3 SWAP2 SWAP1 PUSH2 0x622 JUMP JUMPDEST PUSH1 0x40 MLOAD PUSH1 0x20 DUP2 DUP4 SUB SUB DUP2 MSTORE SWAP1 PUSH1 0x40 MSTORE DUP1 MLOAD SWAP1 PUSH1 0x20 ADD KECCAK256 PUSH1 0x40 MLOAD PUSH1 0x20 ADD PUSH2 0x265 SWAP3 SWAP2 SWAP1 PUSH2 0x538 JUMP JUMPDEST PUSH1 0x40 MLOAD PUSH1 0x20 DUP2 DUP4 SUB SUB DUP2 MSTORE SWAP1 PUSH1 0x40 MSTORE DUP1 MLOAD SWAP1 PUSH1 0x20 ADD KECCAK256 SWAP1 POP SWAP2 SWAP1 POP JUMP JUMPDEST PUSH1 0x0 PUSH1 0x40 MLOAD DUP1 PUSH1 0x60 ADD PUSH1 0x40 MSTORE DUP1 PUSH1 0x27 DUP2 MSTORE PUSH1 0x20 ADD PUSH2 0x91F PUSH1 0x27 SWAP2 CODECOPY PUSH1 0x40 MLOAD PUSH1 0x20 ADD PUSH2 0x2AD SWAP2 SWAP1 PUSH2 0x521 JUMP JUMPDEST PUSH1 0x40 MLOAD PUSH1 0x20 DUP2 DUP4 SUB SUB DUP2 MSTORE SWAP1 PUSH1 0x40 MSTORE DUP1 MLOAD SWAP1 PUSH1 0x20 ADD KECCAK256 DUP3 PUSH1 0x0 ADD MLOAD DUP4 PUSH1 0x20 ADD MLOAD PUSH1 0x40 MLOAD PUSH1 0x20 ADD PUSH2 0x2DF SWAP4 SWAP3 SWAP2 SWAP1 PUSH2 0x5EB JUMP JUMPDEST PUSH1 0x40 MLOAD PUSH1 0x20 DUP2 DUP4 SUB SUB DUP2 MSTORE SWAP1 PUSH1 0x40 MSTORE DUP1 MLOAD SWAP1 PUSH1 0x20 ADD KECCAK256 SWAP1 POP SWAP2 SWAP1 POP JUMP JUMPDEST PUSH1 0x0 DUP2 CALLDATALOAD SWAP1 POP PUSH2 0x30B DUP2 PUSH2 0x819 JUMP JUMPDEST SWAP3 SWAP2 POP POP JUMP JUMPDEST PUSH1 0x0 DUP2 CALLDATALOAD SWAP1 POP PUSH2 0x320 DUP2 PUSH2 0x830 JUMP JUMPDEST SWAP3 SWAP2 POP POP JUMP JUMPDEST PUSH1 0x0 PUSH1 0x60 DUP3 DUP5 SUB SLT ISZERO PUSH2 0x33C JUMPI PUSH2 0x33B PUSH2 0x7D5 JUMP JUMPDEST JUMPDEST PUSH2 0x346 PUSH1 0x40 PUSH2 0x69E JUMP JUMPDEST SWAP1 POP PUSH1 0x0 PUSH2 0x356 DUP5 DUP3 DUP6 ADD PUSH2 0x3C6 JUMP JUMPDEST PUSH1 0x0 DUP4 ADD MSTORE POP PUSH1 0x20 PUSH2 0x36A DUP5 DUP3 DUP6 ADD PUSH2 0x376 JUMP JUMPDEST PUSH1 0x20 DUP4 ADD MSTORE POP SWAP3 SWAP2 POP POP JUMP JUMPDEST PUSH1 0x0 PUSH1 0x40 DUP3 DUP5 SUB SLT ISZERO PUSH2 0x38C JUMPI PUSH2 0x38B PUSH2 0x7D5 JUMP JUMPDEST JUMPDEST PUSH2 0x396 PUSH1 0x40 PUSH2 0x69E JUMP JUMPDEST SWAP1 POP PUSH1 0x0 PUSH2 0x3A6 DUP5 DUP3 DUP6 ADD PUSH2 0x3C6 JUMP JUMPDEST PUSH1 0x0 DUP4 ADD MSTORE POP PUSH1 0x20 PUSH2 0x3BA DUP5 DUP3 DUP6 ADD PUSH2 0x2FC JUMP JUMPDEST PUSH1 0x20 DUP4 ADD MSTORE POP SWAP3 SWAP2 POP POP JUMP JUMPDEST PUSH1 0x0 DUP2 CALLDATALOAD SWAP1 POP PUSH2 0x3D5 DUP2 PUSH2 0x847 JUMP JUMPDEST SWAP3 SWAP2 POP POP JUMP JUMPDEST PUSH1 0x0 DUP2 CALLDATALOAD SWAP1 POP PUSH2 0x3EA DUP2 PUSH2 0x85E JUMP JUMPDEST SWAP3 SWAP2 POP POP JUMP JUMPDEST PUSH1 0x0 DUP1 PUSH1 0x0 DUP1 PUSH1 0x0 PUSH1 0xE0 DUP7 DUP9 SUB SLT ISZERO PUSH2 0x40C JUMPI PUSH2 0x40B PUSH2 0x7DA JUMP JUMPDEST JUMPDEST PUSH1 0x0 PUSH2 0x41A DUP9 DUP3 DUP10 ADD PUSH2 0x2FC JUMP JUMPDEST SWAP6 POP POP PUSH1 0x20 PUSH2 0x42B DUP9 DUP3 DUP10 ADD PUSH2 0x326 JUMP JUMPDEST SWAP5 POP POP PUSH1 0x80 PUSH2 0x43C DUP9 DUP3 DUP10 ADD PUSH2 0x3DB JUMP JUMPDEST SWAP4 POP POP PUSH1 0xA0 PUSH2 0x44D DUP9 DUP3 DUP10 ADD PUSH2 0x311 JUMP JUMPDEST SWAP3 POP POP PUSH1 0xC0 PUSH2 0x45E DUP9 DUP3 DUP10 ADD PUSH2 0x311 JUMP JUMPDEST SWAP2 POP POP SWAP3 SWAP6 POP SWAP3 SWAP6 SWAP1 SWAP4 POP JUMP JUMPDEST PUSH2 0x474 DUP2 PUSH2 0x6D9 JUMP JUMPDEST DUP3 MSTORE POP POP JUMP JUMPDEST PUSH2 0x483 DUP2 PUSH2 0x6EB JUMP JUMPDEST DUP3 MSTORE POP POP JUMP JUMPDEST PUSH2 0x492 DUP2 PUSH2 0x6F7 JUMP JUMPDEST DUP3 MSTORE POP POP JUMP JUMPDEST PUSH2 0x4A9 PUSH2 0x4A4 DUP3 PUSH2 0x6F7 JUMP JUMPDEST PUSH2 0x79C JUMP JUMPDEST DUP3 MSTORE POP POP JUMP JUMPDEST PUSH1 0x0 PUSH2 0x4BA DUP3 PUSH2 0x6C3 JUMP JUMPDEST PUSH2 0x4C4 DUP2 DUP6 PUSH2 0x6CE JUMP JUMPDEST SWAP4 POP PUSH2 0x4D4 DUP2 DUP6 PUSH1 0x20 DUP7 ADD PUSH2 0x738 JUMP JUMPDEST DUP1 DUP5 ADD SWAP2 POP POP SWAP3 SWAP2 POP POP JUMP JUMPDEST PUSH1 0x0 PUSH2 0x4ED PUSH1 0x2 DUP4 PUSH2 0x6CE JUMP JUMPDEST SWAP2 POP PUSH2 0x4F8 DUP3 PUSH2 0x7F0 JUMP JUMPDEST PUSH1 0x2 DUP3 ADD SWAP1 POP SWAP2 SWAP1 POP JUMP JUMPDEST PUSH2 0x50C DUP2 PUSH2 0x721 JUMP JUMPDEST DUP3 MSTORE POP POP JUMP JUMPDEST PUSH2 0x51B DUP2 PUSH2 0x72B JUMP JUMPDEST DUP3 MSTORE POP POP JUMP JUMPDEST PUSH1 0x0 PUSH2 0x52D DUP3 DUP5 PUSH2 0x4AF JUMP JUMPDEST SWAP2 POP DUP2 SWAP1 POP SWAP3 SWAP2 POP POP JUMP JUMPDEST PUSH1 0x0 PUSH2 0x543 DUP3 PUSH2 0x4E0 JUMP JUMPDEST SWAP2 POP PUSH2 0x54F DUP3 DUP6 PUSH2 0x498 JUMP JUMPDEST PUSH1 0x20 DUP3 ADD SWAP2 POP PUSH2 0x55F DUP3 DUP5 PUSH2 0x498 JUMP JUMPDEST PUSH1 0x20 DUP3 ADD SWAP2 POP DUP2 SWAP1 POP SWAP4 SWAP3 POP POP POP JUMP JUMPDEST PUSH1 0x0 PUSH1 0x20 DUP3 ADD SWAP1 POP PUSH2 0x584 PUSH1 0x0 DUP4 ADD DUP5 PUSH2 0x47A JUMP JUMPDEST SWAP3 SWAP2 POP POP JUMP JUMPDEST PUSH1 0x0 PUSH1 0xC0 DUP3 ADD SWAP1 POP PUSH2 0x59F PUSH1 0x0 DUP4 ADD DUP10 PUSH2 0x489 JUMP JUMPDEST PUSH2 0x5AC PUSH1 0x20 DUP4 ADD DUP9 PUSH2 0x489 JUMP JUMPDEST PUSH2 0x5B9 PUSH1 0x40 DUP4 ADD DUP8 PUSH2 0x489 JUMP JUMPDEST PUSH2 0x5C6 PUSH1 0x60 DUP4 ADD DUP7 PUSH2 0x503 JUMP JUMPDEST PUSH2 0x5D3 PUSH1 0x80 DUP4 ADD DUP6 PUSH2 0x46B JUMP JUMPDEST PUSH2 0x5E0 PUSH1 0xA0 DUP4 ADD DUP5 PUSH2 0x489 JUMP JUMPDEST SWAP8 SWAP7 POP POP POP POP POP POP POP JUMP JUMPDEST PUSH1 0x0 PUSH1 0x60 DUP3 ADD SWAP1 POP PUSH2 0x600 PUSH1 0x0 DUP4 ADD DUP7 PUSH2 0x489 JUMP JUMPDEST PUSH2 0x60D PUSH1 0x20 DUP4 ADD DUP6 PUSH2 0x503 JUMP JUMPDEST PUSH2 0x61A PUSH1 0x40 DUP4 ADD DUP5 PUSH2 0x46B JUMP JUMPDEST SWAP5 SWAP4 POP POP POP POP JUMP JUMPDEST PUSH1 0x0 PUSH1 0x60 DUP3 ADD SWAP1 POP PUSH2 0x637 PUSH1 0x0 DUP4 ADD DUP7 PUSH2 0x489 JUMP JUMPDEST PUSH2 0x644 PUSH1 0x20 DUP4 ADD DUP6 PUSH2 0x503 JUMP JUMPDEST PUSH2 0x651 PUSH1 0x40 DUP4 ADD DUP5 PUSH2 0x489 JUMP JUMPDEST SWAP5 SWAP4 POP POP POP POP JUMP JUMPDEST PUSH1 0x0 PUSH1 0x80 DUP3 ADD SWAP1 POP PUSH2 0x66E PUSH1 0x0 DUP4 ADD DUP8 PUSH2 0x489 JUMP JUMPDEST PUSH2 0x67B PUSH1 0x20 DUP4 ADD DUP7 PUSH2 0x512 JUMP JUMPDEST PUSH2 0x688 PUSH1 0x40 DUP4 ADD DUP6 PUSH2 0x489 JUMP JUMPDEST PUSH2 0x695 PUSH1 0x60 DUP4 ADD DUP5 PUSH2 0x489 JUMP JUMPDEST SWAP6 SWAP5 POP POP POP POP POP JUMP JUMPDEST PUSH1 0x0 PUSH2 0x6A8 PUSH2 0x6B9 JUMP JUMPDEST SWAP1 POP PUSH2 0x6B4 DUP3 DUP3 PUSH2 0x76B JUMP JUMPDEST SWAP2 SWAP1 POP JUMP JUMPDEST PUSH1 0x0 PUSH1 0x40 MLOAD SWAP1 POP SWAP1 JUMP JUMPDEST PUSH1 0x0 DUP2 MLOAD SWAP1 POP SWAP2 SWAP1 POP JUMP JUMPDEST PUSH1 0x0 DUP2 SWAP1 POP SWAP3 SWAP2 POP POP JUMP JUMPDEST PUSH1 0x0 PUSH2 0x6E4 DUP3 PUSH2 0x701 JUMP JUMPDEST SWAP1 POP SWAP2 SWAP1 POP JUMP JUMPDEST PUSH1 0x0 DUP2 ISZERO ISZERO SWAP1 POP SWAP2 SWAP1 POP JUMP JUMPDEST PUSH1 0x0 DUP2 SWAP1 POP SWAP2 SWAP1 POP JUMP JUMPDEST PUSH1 0x0 PUSH20 0xFFFFFFFFFFFFFFFFFFFFFFFFFFFFFFFFFFFFFFFF DUP3 AND SWAP1 POP SWAP2 SWAP1 POP JUMP JUMPDEST PUSH1 0x0 DUP2 SWAP1 POP SWAP2 SWAP1 POP JUMP JUMPDEST PUSH1 0x0 PUSH1 0xFF DUP3 AND SWAP1 POP SWAP2 SWAP1 POP JUMP JUMPDEST PUSH1 0x0 JUMPDEST DUP4 DUP2 LT ISZERO PUSH2 0x756 JUMPI DUP1 DUP3 ADD MLOAD DUP2 DUP5 ADD MSTORE PUSH1 0x20 DUP2 ADD SWAP1 POP PUSH2 0x73B JUMP JUMPDEST DUP4 DUP2 GT ISZERO PUSH2 0x765 JUMPI PUSH1 0x0 DUP5 DUP5 ADD MSTORE JUMPDEST POP POP POP POP JUMP JUMPDEST PUSH2 0x774 DUP3 PUSH2 0x7DF JUMP JUMPDEST DUP2 ADD DUP2 DUP2 LT PUSH8 0xFFFFFFFFFFFFFFFF DUP3 GT OR ISZERO PUSH2 0x793 JUMPI PUSH2 0x792 PUSH2 0x7A6 JUMP JUMPDEST JUMPDEST DUP1 PUSH1 0x40 MSTORE POP POP POP JUMP JUMPDEST PUSH1 0x0 DUP2 SWAP1 POP SWAP2 SWAP1 POP JUMP JUMPDEST PUSH32 0x4E487B7100000000000000000000000000000000000000000000000000000000 PUSH1 0x0 MSTORE PUSH1 0x41 PUSH1 0x4 MSTORE PUSH1 0x24 PUSH1 0x0 REVERT JUMPDEST PUSH1 0x0 DUP1 REVERT JUMPDEST PUSH1 0x0 DUP1 REVERT JUMPDEST PUSH1 0x0 PUSH1 0x1F NOT PUSH1 0x1F DUP4 ADD AND SWAP1 POP SWAP2 SWAP1 POP JUMP JUMPDEST PUSH32 0x1901000000000000000000000000000000000000000000000000000000000000 PUSH1 0x0 DUP3 ADD MSTORE POP JUMP JUMPDEST PUSH2 0x822 DUP2 PUSH2 0x6D9 JUMP JUMPDEST DUP2 EQ PUSH2 0x82D JUMPI PUSH1 0x0 DUP1 REVERT JUMPDEST POP JUMP JUMPDEST PUSH2 0x839 DUP2 PUSH2 0x6F7 JUMP JUMPDEST DUP2 EQ PUSH2 0x844 JUMPI PUSH1 0x0 DUP1 REVERT JUMPDEST POP JUMP JUMPDEST PUSH2 0x850 DUP2 PUSH2 0x721 JUMP JUMPDEST DUP2 EQ PUSH2 0x85B JUMPI PUSH1 0x0 DUP1 REVERT JUMPDEST POP JUMP JUMPDEST PUSH2 0x867 DUP2 PUSH2 0x72B JUMP JUMPDEST DUP2 EQ PUSH2 0x872 JUMPI PUSH1 0x0 DUP1 REVERT JUMPDEST POP JUMP INVALID TIMESTAMP PUSH10 0x642875696E7432353620 PUSH2 0x6D6F PUSH22 0x6E742C4964656E746974792062696464657229496465 PUSH15 0x746974792875696E74323536207573 PUSH6 0x7249642C6164 PUSH5 0x7265737320 PUSH24 0x616C6C657429454950373132446F6D61696E28737472696E PUSH8 0x206E616D652C7374 PUSH19 0x696E672076657273696F6E2C75696E74323536 KECCAK256 PUSH4 0x6861696E 0x49 PUSH5 0x2C61646472 PUSH6 0x737320766572 PUSH10 0x6679696E67436F6E7472 PUSH2 0x6374 0x2C PUSH3 0x797465 PUSH20 0x33322073616C74294964656E746974792875696E PUSH21 0x323536207573657249642C61646472657373207761 PUSH13 0x6C657429A26469706673582212 KECCAK256 SIGNEXTEND DUP1 DIV 0xC2 0xA5 0xB2 PUSH24 0x80F3FD96D92FF4D557BC23A2CB6308DA3CE9F3CF482D9981 0xCF PUSH5 0x736F6C6343 STOP ADDMOD SMOD STOP CALLER "},"methodIdentifiers":{"verify(address,(uint256,(uint256,address)),uint8,bytes32,bytes32)":"3c9ee31c"}}}}}