{"contracts/Test.sol":{"Test":{"abi":[{"inputs":[{"internalType":"address","name":"signer","type":"address"},{"components":[{"internalType":"uint256","name":"amount","type":"uint256"},{"components":[{"internalType":"uint256","name":"userId","type":"uint256"},{"internalType":"address","name":"wallet","type":"address"}],"internalType":"struct Verifier.Identity","name":"bidder","type":"tuple"}],"internalType":"struct Verifier.Bid","name":"bid","type":"tuple"},{"internalType":"uint8","name":"v","type":"uint8"},{"internalType":"bytes32","name":"r","type":"bytes32"},{"internalType":"bytes32","name":"s","type":"bytes32"}],"name":"verify","outputs":[{"internalType":"bool","name":"","type":"bool"}],"stateMutability":"pure","type":"function"}],"evm":{"bytecode":{"linkReferences":{},"object":"608060405234801561001057600080fd5b50610995806100206000396000f3fe608060405234801561001057600080fd5b506004361061002b5760003560e01c80633c9ee31c14610030575b600080fd5b61004a6004803603810190610045919061040a565b610060565b6040516100579190610589565b60405180910390f35b600061006f868686868661007a565b905095945050505050565b600060016100878661010c565b858585604051600081526020016040526040516100a79493929190610673565b6020604051602081039080840390855afa1580156100c9573d6000803e3d6000fd5b5050506020604051035173ffffffffffffffffffffffffffffffffffffffff168673ffffffffffffffffffffffffffffffffffffffff1614905095945050505050565b60006040518060800160405280605f81526020016108da605f9139604051602001610137919061053b565b604051602081830303815290604052805190602001207f9c22ff5f21f0b81b113e63f7db6da94fedef11b2119b4088b89664fb9a3cb6587fad7c5bef027816a800da1736444fb58a807ef4c9603b7848673f7e3a68eb14a56005731c56346cd2a2bf3202f771f50d3d14a367b480707ff2d857f4a3edcb9b78b4d503bfe733db1e3f6cdc2b7971ee739626c97e86a55860001b6040516020016101df969594939291906105a4565b604051602081830303815290604052805190602001206040518060800160405280604a8152602001610890604a913960405160200161021e919061053b565b604051602081830303815290604052805190602001208360000151610246856020015161029c565b6040516020016102589392919061063c565b6040516020818303038152906040528051906020012060405160200161027f929190610552565b604051602081830303815290604052805190602001209050919050565b6000604051806060016040528060278152602001610939602791396040516020016102c7919061053b565b60405160208183030381529060405280519060200120826000015183602001516040516020016102f993929190610605565b604051602081830303815290604052805190602001209050919050565b60008135905061032581610833565b92915050565b60008135905061033a8161084a565b92915050565b600060608284031215610356576103556107ef565b5b61036060406106b8565b90506000610370848285016103e0565b600083015250602061038484828501610390565b60208301525092915050565b6000604082840312156103a6576103a56107ef565b5b6103b060406106b8565b905060006103c0848285016103e0565b60008301525060206103d484828501610316565b60208301525092915050565b6000813590506103ef81610861565b92915050565b60008135905061040481610878565b92915050565b600080600080600060e08688031215610426576104256107f4565b5b600061043488828901610316565b955050602061044588828901610340565b9450506080610456888289016103f5565b93505060a06104678882890161032b565b92505060c06104788882890161032b565b9150509295509295909350565b61048e816106f3565b82525050565b61049d81610705565b82525050565b6104ac81610711565b82525050565b6104c36104be82610711565b6107b6565b82525050565b60006104d4826106dd565b6104de81856106e8565b93506104ee818560208601610752565b80840191505092915050565b60006105076002836106e8565b91506105128261080a565b600282019050919050565b6105268161073b565b82525050565b61053581610745565b82525050565b600061054782846104c9565b915081905092915050565b600061055d826104fa565b915061056982856104b2565b60208201915061057982846104b2565b6020820191508190509392505050565b600060208201905061059e6000830184610494565b92915050565b600060c0820190506105b960008301896104a3565b6105c660208301886104a3565b6105d360408301876104a3565b6105e0606083018661051d565b6105ed6080830185610485565b6105fa60a08301846104a3565b979650505050505050565b600060608201905061061a60008301866104a3565b610627602083018561051d565b6106346040830184610485565b949350505050565b600060608201905061065160008301866104a3565b61065e602083018561051d565b61066b60408301846104a3565b949350505050565b600060808201905061068860008301876104a3565b610695602083018661052c565b6106a260408301856104a3565b6106af60608301846104a3565b95945050505050565b60006106c26106d3565b90506106ce8282610785565b919050565b6000604051905090565b600081519050919050565b600081905092915050565b60006106fe8261071b565b9050919050565b60008115159050919050565b6000819050919050565b600073ffffffffffffffffffffffffffffffffffffffff82169050919050565b6000819050919050565b600060ff82169050919050565b60005b83811015610770578082015181840152602081019050610755565b8381111561077f576000848401525b50505050565b61078e826107f9565b810181811067ffffffffffffffff821117156107ad576107ac6107c0565b5b80604052505050565b6000819050919050565b7f4e487b7100000000000000000000000000000000000000000000000000000000600052604160045260246000fd5b600080fd5b600080fd5b6000601f19601f8301169050919050565b7f1901000000000000000000000000000000000000000000000000000000000000600082015250565b61083c816106f3565b811461084757600080fd5b50565b61085381610711565b811461085e57600080fd5b50565b61086a8161073b565b811461087557600080fd5b50565b61088181610745565b811461088c57600080fd5b5056fe4269642875696e7432353620616d6f756e742c4964656e7469747920626964646572294964656e746974792875696e74323536207573657249642c616464726573732077616c6c657429454950373132446f6d61696e28737472696e67206e616d652c737472696e672076657273696f6e2c75696e7432353620636861696e49642c6164647265737320766572696679696e67436f6e74726163742c627974657333322073616c74294964656e746974792875696e74323536207573657249642c616464726573732077616c6c657429a26469706673582212201b5971f7a08e5ad7e3f22fd922aa8b6d266a5d851d69ffea662eff6e3cbfd41164736f6c63430008070033","opcodes":"PUSH1 0x80 PUSH1 0x40 MSTORE CALLVALUE DUP1 ISZERO PUSH2 0x10 JUMPI PUSH1 0x0 DUP1 REVERT JUMPDEST POP PUSH2 0x995 DUP1 PUSH2 0x20 PUSH1 0x0 CODECOPY PUSH1 0x0 RETURN INVALID PUSH1 0x80 PUSH1 0x40 MSTORE CALLVALUE DUP1 ISZERO PUSH2 0x10 JUMPI PUSH1 0x0 DUP1 REVERT JUMPDEST POP PUSH1 0x4 CALLDATASIZE LT PUSH2 0x2B JUMPI PUSH1 0x0 CALLDATALOAD PUSH1 0xE0 SHR DUP1 PUSH4 0x3C9EE31C EQ PUSH2 0x30 JUMPI JUMPDEST PUSH1 0x0 DUP1 REVERT JUMPDEST PUSH2 0x4A PUSH1 0x4 DUP1 CALLDATASIZE SUB DUP2 ADD SWAP1 PUSH2 0x45 SWAP2 SWAP1 PUSH2 0x40A JUMP JUMPDEST PUSH2 0x60 JUMP JUMPDEST PUSH1 0x40 MLOAD PUSH2 0x57 SWAP2 SWAP1 PUSH2 0x589 JUMP JUMPDEST PUSH1 0x40 MLOAD DUP1 SWAP2 SUB SWAP1 RETURN JUMPDEST PUSH1 0x0 PUSH2 0x6F DUP7 DUP7 DUP7 DUP7 DUP7 PUSH2 0x7A JUMP JUMPDEST SWAP1 POP SWAP6 SWAP5 POP POP POP POP POP JUMP JUMPDEST PUSH1 0x0 PUSH1 0x1 PUSH2 0x87 DUP7 PUSH2 0x10C JUMP JUMPDEST DUP6 DUP6 DUP6 PUSH1 0x40 MLOAD PUSH1 0x0 DUP2 MSTORE PUSH1 0x20 ADD PUSH1 0x40 MSTORE PUSH1 0x40 MLOAD PUSH2 0xA7 SWAP5 SWAP4 SWAP3 SWAP2 SWAP1 PUSH2 0x673 JUMP JUMPDEST PUSH1 0x20 PUSH1 0x40 MLOAD PUSH1 0x20 DUP2 SUB SWAP1 DUP1 DUP5 SUB SWAP1 DUP6 GAS STATICCALL ISZERO DUP1 ISZERO PUSH2 0xC9 JUMPI RETURNDATASIZE PUSH1 0x0 DUP1 RETURNDATACOPY RETURNDATASIZE PUSH1 0x0 REVERT JUMPDEST POP POP POP PUSH1 0x20 PUSH1 0x40 MLOAD SUB MLOAD PUSH20 0xFFFFFFFFFFFFFFFFFFFFFFFFFFFFFFFFFFFFFFFF AND DUP7 PUSH20 0xFFFFFFFFFFFFFFFFFFFFFFFFFFFFFFFFFFFFFFFF AND EQ SWAP1 POP SWAP6 SWAP5 POP POP POP POP POP JUMP JUMPDEST PUSH1 0x0 PUSH1 0x40 MLOAD DUP1 PUSH1 0x80 ADD PUSH1 0x40 MSTORE DUP1 PUSH1 0x5F DUP2 MSTORE PUSH1 0x20 ADD PUSH2 0x8DA PUSH1 0x5F SWAP2 CODECOPY PUSH1 0x40 MLOAD PUSH1 0x20 ADD PUSH2 0x137 SWAP2 SWAP1 PUSH2 0x53B JUMP JUMPDEST PUSH1 0x40 MLOAD PUSH1 0x20 DUP2 DUP4 SUB SUB DUP2 MSTORE SWAP1 PUSH1 0x40 MSTORE DUP1 MLOAD SWAP1 PUSH1 0x20 ADD KECCAK256 PUSH32 0x9C22FF5F21F0B81B113E63F7DB6DA94FEDEF11B2119B4088B89664FB9A3CB658 PUSH32 0xAD7C5BEF027816A800DA1736444FB58A807EF4C9603B7848673F7E3A68EB14A5 PUSH1 0x5 PUSH20 0x1C56346CD2A2BF3202F771F50D3D14A367B48070 PUSH32 0xF2D857F4A3EDCB9B78B4D503BFE733DB1E3F6CDC2B7971EE739626C97E86A558 PUSH1 0x0 SHL PUSH1 0x40 MLOAD PUSH1 0x20 ADD PUSH2 0x1DF SWAP7 SWAP6 SWAP5 SWAP4 SWAP3 SWAP2 SWAP1 PUSH2 0x5A4 JUMP JUMPDEST PUSH1 0x40 MLOAD PUSH1 0x20 DUP2 DUP4 SUB SUB DUP2 MSTORE SWAP1 PUSH1 0x40 MSTORE DUP1 MLOAD SWAP1 PUSH1 0x20 ADD KECCAK256 PUSH1 0x40 MLOAD DUP1 PUSH1 0x80 ADD PUSH1 0x40 MSTORE DUP1 PUSH1 0x4A DUP2 MSTORE PUSH1 0x20 ADD PUSH2 0x890 PUSH1 0x4A SWAP2 CODECOPY PUSH1 0x40 MLOAD PUSH1 0x20 ADD PUSH2 0x21E SWAP2 SWAP1 PUSH2 0x53B JUMP JUMPDEST PUSH1 0x40 MLOAD PUSH1 0x20 DUP2 DUP4 SUB SUB DUP2 MSTORE SWAP1 PUSH1 0x40 MSTORE DUP1 MLOAD SWAP1 PUSH1 0x20 ADD KECCAK256 DUP4 PUSH1 0x0 ADD MLOAD PUSH2 0x246 DUP6 PUSH1 0x20 ADD MLOAD PUSH2 0x29C JUMP JUMPDEST PUSH1 0x40 MLOAD PUSH1 0x20 ADD PUSH2 0x258 SWAP4 SWAP3 SWAP2 SWAP1 PUSH2 0x63C JUMP JUMPDEST PUSH1 0x40 MLOAD PUSH1 0x20 DUP2 DUP4 SUB SUB DUP2 MSTORE SWAP1 PUSH1 0x40 MSTORE DUP1 MLOAD SWAP1 PUSH1 0x20 ADD KECCAK256 PUSH1 0x40 MLOAD PUSH1 0x20 ADD PUSH2 0x27F SWAP3 SWAP2 SWAP1 PUSH2 0x552 JUMP JUMPDEST PUSH1 0x40 MLOAD PUSH1 0x20 DUP2 DUP4 SUB SUB DUP2 MSTORE SWAP1 PUSH1 0x40 MSTORE DUP1 MLOAD SWAP1 PUSH1 0x20 ADD KECCAK256 SWAP1 POP SWAP2 SWAP1 POP JUMP JUMPDEST PUSH1 0x0 PUSH1 0x40 MLOAD DUP1 PUSH1 0x60 ADD PUSH1 0x40 MSTORE DUP1 PUSH1 0x27 DUP2 MSTORE PUSH1 0x20 ADD PUSH2 0x939 PUSH1 0x27 SWAP2 CODECOPY PUSH1 0x40 MLOAD PUSH1 0x20 ADD PUSH2 0x2C7 SWAP2 SWAP1 PUSH2 0x53B JUMP JUMPDEST PUSH1 0x40 MLOAD PUSH1 0x20 DUP2 DUP4 SUB SUB DUP2 MSTORE SWAP1 PUSH1 0x40 MSTORE DUP1 MLOAD SWAP1 PUSH1 0x20 ADD KECCAK256 DUP3 PUSH1 0x0 ADD MLOAD DUP4 PUSH1 0x20 ADD MLOAD PUSH1 0x40 MLOAD PUSH1 0x20 ADD PUSH2 0x2F9 SWAP4 SWAP3 SWAP2 SWAP1 PUSH2 0x605 JUMP JUMPDEST PUSH1 0x40 MLOAD PUSH1 0x20 DUP2 DUP4 SUB SUB DUP2 MSTORE SWAP1 PUSH1 0x40 MSTORE DUP1 MLOAD SWAP1 PUSH1 0x20 ADD KECCAK256 SWAP1 POP SWAP2 SWAP1 POP JUMP JUMPDEST PUSH1 0x0 DUP2 CALLDATALOAD SWAP1 POP PUSH2 0x325 DUP2 PUSH2 0x833 JUMP JUMPDEST SWAP3 SWAP2 POP POP JUMP JUMPDEST PUSH1 0x0 DUP2 CALLDATALOAD SWAP1 POP PUSH2 0x33A DUP2 PUSH2 0x84A JUMP JUMPDEST SWAP3 SWAP2 POP POP JUMP JUMPDEST PUSH1 0x0 PUSH1 0x60 DUP3 DUP5 SUB SLT ISZERO PUSH2 0x356 JUMPI PUSH2 0x355 PUSH2 0x7EF JUMP JUMPDEST JUMPDEST PUSH2 0x360 PUSH1 0x40 PUSH2 0x6B8 JUMP JUMPDEST SWAP1 POP PUSH1 0x0 PUSH2 0x370 DUP5 DUP3 DUP6 ADD PUSH2 0x3E0 JUMP JUMPDEST PUSH1 0x0 DUP4 ADD MSTORE POP PUSH1 0x20 PUSH2 0x384 DUP5 DUP3 DUP6 ADD PUSH2 0x390 JUMP JUMPDEST PUSH1 0x20 DUP4 ADD MSTORE POP SWAP3 SWAP2 POP POP JUMP JUMPDEST PUSH1 0x0 PUSH1 0x40 DUP3 DUP5 SUB SLT ISZERO PUSH2 0x3A6 JUMPI PUSH2 0x3A5 PUSH2 0x7EF JUMP JUMPDEST JUMPDEST PUSH2 0x3B0 PUSH1 0x40 PUSH2 0x6B8 JUMP JUMPDEST SWAP1 POP PUSH1 0x0 PUSH2 0x3C0 DUP5 DUP3 DUP6 ADD PUSH2 0x3E0 JUMP JUMPDEST PUSH1 0x0 DUP4 ADD MSTORE POP PUSH1 0x20 PUSH2 0x3D4 DUP5 DUP3 DUP6 ADD PUSH2 0x316 JUMP JUMPDEST PUSH1 0x20 DUP4 ADD MSTORE POP SWAP3 SWAP2 POP POP JUMP JUMPDEST PUSH1 0x0 DUP2 CALLDATALOAD SWAP1 POP PUSH2 0x3EF DUP2 PUSH2 0x861 JUMP JUMPDEST SWAP3 SWAP2 POP POP JUMP JUMPDEST PUSH1 0x0 DUP2 CALLDATALOAD SWAP1 POP PUSH2 0x404 DUP2 PUSH2 0x878 JUMP JUMPDEST SWAP3 SWAP2 POP POP JUMP JUMPDEST PUSH1 0x0 DUP1 PUSH1 0x0 DUP1 PUSH1 0x0 PUSH1 0xE0 DUP7 DUP9 SUB SLT ISZERO PUSH2 0x426 JUMPI PUSH2 0x425 PUSH2 0x7F4 JUMP JUMPDEST JUMPDEST PUSH1 0x0 PUSH2 0x434 DUP9 DUP3 DUP10 ADD PUSH2 0x316 JUMP JUMPDEST SWAP6 POP POP PUSH1 0x20 PUSH2 0x445 DUP9 DUP3 DUP10 ADD PUSH2 0x340 JUMP JUMPDEST SWAP5 POP POP PUSH1 0x80 PUSH2 0x456 DUP9 DUP3 DUP10 ADD PUSH2 0x3F5 JUMP JUMPDEST SWAP4 POP POP PUSH1 0xA0 PUSH2 0x467 DUP9 DUP3 DUP10 ADD PUSH2 0x32B JUMP JUMPDEST SWAP3 POP POP PUSH1 0xC0 PUSH2 0x478 DUP9 DUP3 DUP10 ADD PUSH2 0x32B JUMP JUMPDEST SWAP2 POP POP SWAP3 SWAP6 POP SWAP3 SWAP6 SWAP1 SWAP4 POP JUMP JUMPDEST PUSH2 0x48E DUP2 PUSH2 0x6F3 JUMP JUMPDEST DUP3 MSTORE POP POP JUMP JUMPDEST PUSH2 0x49D DUP2 PUSH2 0x705 JUMP JUMPDEST DUP3 MSTORE POP POP JUMP JUMPDEST PUSH2 0x4AC DUP2 PUSH2 0x711 JUMP JUMPDEST DUP3 MSTORE POP POP JUMP JUMPDEST PUSH2 0x4C3 PUSH2 0x4BE DUP3 PUSH2 0x711 JUMP JUMPDEST PUSH2 0x7B6 JUMP JUMPDEST DUP3 MSTORE POP POP JUMP JUMPDEST PUSH1 0x0 PUSH2 0x4D4 DUP3 PUSH2 0x6DD JUMP JUMPDEST PUSH2 0x4DE DUP2 DUP6 PUSH2 0x6E8 JUMP JUMPDEST SWAP4 POP PUSH2 0x4EE DUP2 DUP6 PUSH1 0x20 DUP7 ADD PUSH2 0x752 JUMP JUMPDEST DUP1 DUP5 ADD SWAP2 POP POP SWAP3 SWAP2 POP POP JUMP JUMPDEST PUSH1 0x0 PUSH2 0x507 PUSH1 0x2 DUP4 PUSH2 0x6E8 JUMP JUMPDEST SWAP2 POP PUSH2 0x512 DUP3 PUSH2 0x80A JUMP JUMPDEST PUSH1 0x2 DUP3 ADD SWAP1 POP SWAP2 SWAP1 POP JUMP JUMPDEST PUSH2 0x526 DUP2 PUSH2 0x73B JUMP JUMPDEST DUP3 MSTORE POP POP JUMP JUMPDEST PUSH2 0x535 DUP2 PUSH2 0x745 JUMP JUMPDEST DUP3 MSTORE POP POP JUMP JUMPDEST PUSH1 0x0 PUSH2 0x547 DUP3 DUP5 PUSH2 0x4C9 JUMP JUMPDEST SWAP2 POP DUP2 SWAP1 POP SWAP3 SWAP2 POP POP JUMP JUMPDEST PUSH1 0x0 PUSH2 0x55D DUP3 PUSH2 0x4FA JUMP JUMPDEST SWAP2 POP PUSH2 0x569 DUP3 DUP6 PUSH2 0x4B2 JUMP JUMPDEST PUSH1 0x20 DUP3 ADD SWAP2 POP PUSH2 0x579 DUP3 DUP5 PUSH2 0x4B2 JUMP JUMPDEST PUSH1 0x20 DUP3 ADD SWAP2 POP DUP2 SWAP1 POP SWAP4 SWAP3 POP POP POP JUMP JUMPDEST PUSH1 0x0 PUSH1 0x20 DUP3 ADD SWAP1 POP PUSH2 0x59E PUSH1 0x0 DUP4 ADD DUP5 PUSH2 0x494 JUMP JUMPDEST SWAP3 SWAP2 POP POP JUMP JUMPDEST PUSH1 0x0 PUSH1 0xC0 DUP3 ADD SWAP1 POP PUSH2 0x5B9 PUSH1 0x0 DUP4 ADD DUP10 PUSH2 0x4A3 JUMP JUMPDEST PUSH2 0x5C6 PUSH1 0x20 DUP4 ADD DUP9 PUSH2 0x4A3 JUMP JUMPDEST PUSH2 0x5D3 PUSH1 0x40 DUP4 ADD DUP8 PUSH2 0x4A3 JUMP JUMPDEST PUSH2 0x5E0 PUSH1 0x60 DUP4 ADD DUP7 PUSH2 0x51D JUMP JUMPDEST PUSH2 0x5ED PUSH1 0x80 DUP4 ADD DUP6 PUSH2 0x485 JUMP JUMPDEST PUSH2 0x5FA PUSH1 0xA0 DUP4 ADD DUP5 PUSH2 0x4A3 JUMP JUMPDEST SWAP8 SWAP7 POP POP POP POP POP POP POP JUMP JUMPDEST PUSH1 0x0 PUSH1 0x60 DUP3 ADD SWAP1 POP PUSH2 0x61A PUSH1 0x0 DUP4 ADD DUP7 PUSH2 0x4A3 JUMP JUMPDEST PUSH2 0x627 PUSH1 0x20 DUP4 ADD DUP6 PUSH2 0x51D JUMP JUMPDEST PUSH2 0x634 PUSH1 0x40 DUP4 ADD DUP5 PUSH2 0x485 JUMP JUMPDEST SWAP5 SWAP4 POP POP POP POP JUMP JUMPDEST PUSH1 0x0 PUSH1 0x60 DUP3 ADD SWAP1 POP PUSH2 0x651 PUSH1 0x0 DUP4 ADD DUP7 PUSH2 0x4A3 JUMP JUMPDEST PUSH2 0x65E PUSH1 0x20 DUP4 ADD DUP6 PUSH2 0x51D JUMP JUMPDEST PUSH2 0x66B PUSH1 0x40 DUP4 ADD DUP5 PUSH2 0x4A3 JUMP JUMPDEST SWAP5 SWAP4 POP POP POP POP JUMP JUMPDEST PUSH1 0x0 PUSH1 0x80 DUP3 ADD SWAP1 POP PUSH2 0x688 PUSH1 0x0 DUP4 ADD DUP8 PUSH2 0x4A3 JUMP JUMPDEST PUSH2 0x695 PUSH1 0x20 DUP4 ADD DUP7 PUSH2 0x52C JUMP JUMPDEST PUSH2 0x6A2 PUSH1 0x40 DUP4 ADD DUP6 PUSH2 0x4A3 JUMP JUMPDEST PUSH2 0x6AF PUSH1 0x60 DUP4 ADD DUP5 PUSH2 0x4A3 JUMP JUMPDEST SWAP6 SWAP5 POP POP POP POP POP JUMP JUMPDEST PUSH1 0x0 PUSH2 0x6C2 PUSH2 0x6D3 JUMP JUMPDEST SWAP1 POP PUSH2 0x6CE DUP3 DUP3 PUSH2 0x785 JUMP JUMPDEST SWAP2 SWAP1 POP JUMP JUMPDEST PUSH1 0x0 PUSH1 0x40 MLOAD SWAP1 POP SWAP1 JUMP JUMPDEST PUSH1 0x0 DUP2 MLOAD SWAP1 POP SWAP2 SWAP1 POP JUMP JUMPDEST PUSH1 0x0 DUP2 SWAP1 POP SWAP3 SWAP2 POP POP JUMP JUMPDEST PUSH1 0x0 PUSH2 0x6FE DUP3 PUSH2 0x71B JUMP JUMPDEST SWAP1 POP SWAP2 SWAP1 POP JUMP JUMPDEST PUSH1 0x0 DUP2 ISZERO ISZERO SWAP1 POP SWAP2 SWAP1 POP JUMP JUMPDEST PUSH1 0x0 DUP2 SWAP1 POP SWAP2 SWAP1 POP JUMP JUMPDEST PUSH1 0x0 PUSH20 0xFFFFFFFFFFFFFFFFFFFFFFFFFFFFFFFFFFFFFFFF DUP3 AND SWAP1 POP SWAP2 SWAP1 POP JUMP JUMPDEST PUSH1 0x0 DUP2 SWAP1 POP SWAP2 SWAP1 POP JUMP JUMPDEST PUSH1 0x0 PUSH1 0xFF DUP3 AND SWAP1 POP SWAP2 SWAP1 POP JUMP JUMPDEST PUSH1 0x0 JUMPDEST DUP4 DUP2 LT ISZERO PUSH2 0x770 JUMPI DUP1 DUP3 ADD MLOAD DUP2 DUP5 ADD MSTORE PUSH1 0x20 DUP2 ADD SWAP1 POP PUSH2 0x755 JUMP JUMPDEST DUP4 DUP2 GT ISZERO PUSH2 0x77F JUMPI PUSH1 0x0 DUP5 DUP5 ADD MSTORE JUMPDEST POP POP POP POP JUMP JUMPDEST PUSH2 0x78E DUP3 PUSH2 0x7F9 JUMP JUMPDEST DUP2 ADD DUP2 DUP2 LT PUSH8 0xFFFFFFFFFFFFFFFF DUP3 GT OR ISZERO PUSH2 0x7AD JUMPI PUSH2 0x7AC PUSH2 0x7C0 JUMP JUMPDEST JUMPDEST DUP1 PUSH1 0x40 MSTORE POP POP POP JUMP JUMPDEST PUSH1 0x0 DUP2 SWAP1 POP SWAP2 SWAP1 POP JUMP JUMPDEST PUSH32 0x4E487B7100000000000000000000000000000000000000000000000000000000 PUSH1 0x0 MSTORE PUSH1 0x41 PUSH1 0x4 MSTORE PUSH1 0x24 PUSH1 0x0 REVERT JUMPDEST PUSH1 0x0 DUP1 REVERT JUMPDEST PUSH1 0x0 DUP1 REVERT JUMPDEST PUSH1 0x0 PUSH1 0x1F NOT PUSH1 0x1F DUP4 ADD AND SWAP1 POP SWAP2 SWAP1 POP JUMP JUMPDEST PUSH32 0x1901000000000000000000000000000000000000000000000000000000000000 PUSH1 0x0 DUP3 ADD MSTORE POP JUMP JUMPDEST PUSH2 0x83C DUP2 PUSH2 0x6F3 JUMP JUMPDEST DUP2 EQ PUSH2 0x847 JUMPI PUSH1 0x0 DUP1 REVERT JUMPDEST POP JUMP JUMPDEST PUSH2 0x853 DUP2 PUSH2 0x711 JUMP JUMPDEST DUP2 EQ PUSH2 0x85E JUMPI PUSH1 0x0 DUP1 REVERT JUMPDEST POP JUMP JUMPDEST PUSH2 0x86A DUP2 PUSH2 0x73B JUMP JUMPDEST DUP2 EQ PUSH2 0x875 JUMPI PUSH1 0x0 DUP1 REVERT JUMPDEST POP JUMP JUMPDEST PUSH2 0x881 DUP2 PUSH2 0x745 JUMP JUMPDEST DUP2 EQ PUSH2 0x88C JUMPI PUSH1 0x0 DUP1 REVERT JUMPDEST POP JUMP INVALID TIMESTAMP PUSH10 0x642875696E7432353620 PUSH2 0x6D6F PUSH22 0x6E742C4964656E746974792062696464657229496465 PUSH15 0x746974792875696E74323536207573 PUSH6 0x7249642C6164 PUSH5 0x7265737320 PUSH24 0x616C6C657429454950373132446F6D61696E28737472696E PUSH8 0x206E616D652C7374 PUSH19 0x696E672076657273696F6E2C75696E74323536 KECCAK256 PUSH4 0x6861696E 0x49 PUSH5 0x2C61646472 PUSH6 0x737320766572 PUSH10 0x6679696E67436F6E7472 PUSH2 0x6374 0x2C PUSH3 0x797465 PUSH20 0x33322073616C74294964656E746974792875696E PUSH21 0x323536207573657249642C61646472657373207761 PUSH13 0x6C657429A26469706673582212 KECCAK256 SHL MSIZE PUSH18 0xF7A08E5AD7E3F22FD922AA8B6D266A5D851D PUSH10 0xFFEA662EFF6E3CBFD411 PUSH5 0x736F6C6343 STOP ADDMOD SMOD STOP CALLER "},"methodIdentifiers":{"verify(address,(uint256,(uint256,address)),uint8,bytes32,bytes32)":"3c9ee31c"}}}}}